No.     Time        Source                Destination           Protocol Info
      9 2.073300    QuantaCo_c9:ba:3c     Nearest               EAPOL    Start

Frame 9 (1000 bytes on wire, 1000 bytes captured)
    Arrival Time: Apr 21, 2009 11:54:20.393588000
    [Time delta from previous captured frame: 0.573293000 seconds]
    [Time delta from previous displayed frame: 2.073300000 seconds]
    [Time since reference or first frame: 2.073300000 seconds]
    Frame Number: 9
    Frame Length: 1000 bytes
    Capture Length: 1000 bytes
    [Frame is marked: False]
    [Protocols in frame: eth:eapol:data]
    [Coloring Rule Name: Broadcast]
    [Coloring Rule String: eth[0] & 1]
Ethernet II, Src: QuantaCo_c9:ba:3c (00:16:36:c9:ba:3c), Dst: Nearest (01:80:c2:00:00:03)
    Destination: Nearest (01:80:c2:00:00:03)
        Address: Nearest (01:80:c2:00:00:03)
        .... ...1 .... .... .... .... = IG bit: Group address (multicast/broadcast)
        .... ..0. .... .... .... .... = LG bit: Globally unique address (factory default)
    Source: QuantaCo_c9:ba:3c (00:16:36:c9:ba:3c)
        Address: QuantaCo_c9:ba:3c (00:16:36:c9:ba:3c)
        .... ...0 .... .... .... .... = IG bit: Individual address (unicast)
        .... ..0. .... .... .... .... = LG bit: Globally unique address (factory default)
    Type: 802.1X Authentication (0x888e)
    Trailer: FFFF3777FF23FDFDCF000000FFFFFFFFFFFFFFFFFFA36000...
    Frame check sequence: 0x00000000 [incorrect, should be 0xc55b8a7b]
802.1X Authentication
    Version: 1
    Type: Start (1)
    Length: 0

0000  01 80 c2 00 00 03 00 16 36 c9 ba 3c 88 8e 01 01   ........6..<....
0010  00 00 ff ff 37 77 ff 23 fd fd cf 00 00 00 ff ff   ....7w.#........
0020  ff ff ff ff ff ff ff a3 60 00 00 13 11 38 30 32   ........`....802
0030  31 78 2e 65 78 65 00 00 00 00 00 00 00 00 00 00   1x.exe..........
0040  00 00 00 00 00 00 00 00 00 00 00 00 00 02 1f 00   ................
0050  00 00 00 00 13 11 00 28 1a 28 00 00 13 11 17 22   .......(.(....."
0060  92 68 64 66 92 94 62 66 91 93 95 62 93 93 91 94   .hdf..bf...b....
0070  64 61 64 64 65 66 68 94 98 a7 61 67 65 67 9c 6b   daddefh...ageg.k
0080  00 00 00 00 00 00 00 00 00 00 00 00 00 00 00 00   ................
0090  00 00 00 00 00 00 00 00 00 00 00 00 00 00 00 00   ................
00a0  00 00 00 00 00 00 00 00 00 00 00 00 00 00 00 00   ................
00b0  00 00 00 00 00 00 00 00 00 00 00 00 00 00 00 00   ................
00c0  00 00 00 00 00 00 00 00 00 00 00 00 00 00 00 00   ................
00d0  00 00 00 00 00 00 00 00 00 00 00 00 00 00 00 00   ................
00e0  00 00 00 00 00 00 00 00 00 00 00 00 00 00 00 00   ................
00f0  00 00 00 00 00 00 00 00 00 00 00 00 00 00 00 00   ................
0100  00 00 00 00 00 00 00 00 00 00 00 00 00 00 00 00   ................
0110  00 00 00 00 00 00 00 00 00 00 00 00 00 00 00 00   ................
0120  00 00 00 00 00 00 00 00 00 00 00 00 00 00 00 00   ................
0130  00 00 00 00 00 00 00 00 00 00 00 00 00 00 00 00   ................
0140  00 00 00 00 00 00 00 00 00 00 00 00 00 00 00 00   ................
0150  00 00 00 00 00 00 00 00 00 00 00 00 00 00 00 00   ................
0160  00 00 00 00 00 00 00 00 00 00 00 00 00 00 00 00   ................
0170  00 00 00 00 00 00 00 00 00 00 00 00 00 00 00 00   ................
0180  00 00 00 00 00 00 00 00 00 00 00 00 00 00 00 00   ................
0190  00 00 00 00 00 00 00 00 00 00 00 00 00 00 00 00   ................
01a0  00 00 00 00 00 00 00 00 00 00 00 00 00 00 00 00   ................
01b0  00 00 00 00 00 00 00 00 00 00 00 00 00 00 00 00   ................
01c0  00 00 00 00 00 00 00 00 00 00 00 00 00 00 00 00   ................
01d0  00 00 00 00 00 00 00 00 00 00 00 00 00 00 00 00   ................
01e0  00 00 00 00 00 00 00 00 00 00 00 00 00 00 00 00   ................
01f0  00 00 00 00 00 00 00 00 00 00 00 00 00 00 00 00   ................
0200  00 00 00 00 00 00 00 00 00 00 00 00 00 00 00 00   ................
0210  00 00 00 00 00 00 00 00 00 00 00 00 00 00 00 00   ................
0220  00 00 00 00 00 00 00 00 00 00 00 00 00 00 00 00   ................
0230  00 00 00 00 00 00 00 00 00 00 00 00 00 00 00 00   ................
0240  00 00 00 00 00 00 00 00 00 00 00 00 00 00 00 00   ................
0250  00 00 00 00 00 00 00 00 00 00 00 00 00 00 00 00   ................
0260  00 00 00 00 00 00 00 00 00 00 00 00 00 00 00 00   ................
0270  00 00 00 00 00 00 00 00 00 00 00 00 00 00 00 00   ................
0280  00 00 00 00 00 00 00 00 00 00 00 00 00 00 00 00   ................
0290  00 00 00 00 00 00 00 00 00 00 00 00 00 00 00 00   ................
02a0  00 00 00 00 00 00 00 00 00 00 00 00 00 00 00 00   ................
02b0  00 00 00 00 00 00 00 00 00 00 00 00 00 00 00 00   ................
02c0  00 00 00 00 00 00 00 00 00 00 00 00 00 00 00 00   ................
02d0  00 00 00 00 00 00 00 00 00 00 00 00 00 00 00 00   ................
02e0  00 00 00 00 00 00 00 00 00 00 00 00 00 00 00 00   ................
02f0  00 00 00 00 00 00 00 00 00 00 00 00 00 00 00 00   ................
0300  00 00 00 00 00 00 00 00 00 00 00 00 00 00 00 00   ................
0310  00 00 00 00 00 00 00 00 00 00 00 00 00 00 00 00   ................
0320  00 00 00 00 00 00 00 00 00 00 00 00 00 00 00 00   ................
0330  00 00 00 00 00 00 00 00 00 00 00 00 00 00 00 00   ................
0340  00 00 00 00 00 00 00 00 00 00 00 00 00 00 00 00   ................
0350  00 00 00 00 00 00 00 00 00 00 00 00 00 00 00 00   ................
0360  00 00 00 00 00 00 00 00 00 00 00 00 00 00 00 00   ................
0370  00 00 00 00 00 00 00 00 00 00 00 00 00 00 00 00   ................
0380  00 00 00 00 00 00 00 00 00 00 00 00 00 00 00 00   ................
0390  00 00 00 00 00 00 00 00 00 00 00 00 00 00 00 00   ................
03a0  00 00 00 00 00 00 00 00 00 00 00 00 00 00 00 00   ................
03b0  00 00 00 00 00 00 00 00 00 00 00 00 00 00 00 00   ................
03c0  00 00 00 00 00 00 00 00 00 00 00 00 00 00 00 00   ................
03d0  00 00 00 00 00 00 00 00 00 00 00 00 00 00 00 00   ................
03e0  00 00 00 00 00 00 00 00                           ........

No.     Time        Source                Destination           Protocol Info
     10 2.084493    FujianSt_d9:f1:04     QuantaCo_c9:ba:3c     EAP      Request, Identity [RFC3748]

Frame 10 (64 bytes on wire, 64 bytes captured)
    Arrival Time: Apr 21, 2009 11:54:20.404781000
    [Time delta from previous captured frame: 0.011193000 seconds]
    [Time delta from previous displayed frame: 0.011193000 seconds]
    [Time since reference or first frame: 2.084493000 seconds]
    Frame Number: 10
    Frame Length: 64 bytes
    Capture Length: 64 bytes
    [Frame is marked: False]
    [Protocols in frame: eth:eapol:eap]
Ethernet II, Src: FujianSt_d9:f1:04 (00:d0:f8:d9:f1:04), Dst: QuantaCo_c9:ba:3c (00:16:36:c9:ba:3c)
    Destination: QuantaCo_c9:ba:3c (00:16:36:c9:ba:3c)
        Address: QuantaCo_c9:ba:3c (00:16:36:c9:ba:3c)
        .... ...0 .... .... .... .... = IG bit: Individual address (unicast)
        .... ..0. .... .... .... .... = LG bit: Globally unique address (factory default)
    Source: FujianSt_d9:f1:04 (00:d0:f8:d9:f1:04)
        Address: FujianSt_d9:f1:04 (00:d0:f8:d9:f1:04)
        .... ...0 .... .... .... .... = IG bit: Individual address (unicast)
        .... ..0. .... .... .... .... = LG bit: Globally unique address (factory default)
    Type: 802.1X Authentication (0x888e)
    Trailer: 000000000000000000000000000000000000000000000000...
    Frame check sequence: 0x00000000 [incorrect, should be 0xf6127075]
802.1X Authentication
    Version: 1
    Type: EAP Packet (0)
    Length: 5
    Extensible Authentication Protocol
        Code: Request (1)
        Id: 81
        Length: 5
        Type: Identity [RFC3748] (1)

0000  00 16 36 c9 ba 3c 00 d0 f8 d9 f1 04 88 8e 01 00   ..6..<..........
0010  00 05 01 51 00 05 01 00 00 00 00 00 00 00 00 00   ...Q............
0020  00 00 00 00 00 00 00 00 00 00 00 00 00 00 00 00   ................
0030  00 00 00 00 00 00 00 00 00 00 00 00 00 00 00 00   ................

No.     Time        Source                Destination           Protocol Info
     11 2.084621    QuantaCo_c9:ba:3c     FujianSt_d9:f1:04     EAP      Response, Identity [RFC3748]

Frame 11 (1000 bytes on wire, 1000 bytes captured)
    Arrival Time: Apr 21, 2009 11:54:20.404909000
    [Time delta from previous captured frame: 0.000128000 seconds]
    [Time delta from previous displayed frame: 0.000128000 seconds]
    [Time since reference or first frame: 2.084621000 seconds]
    Frame Number: 11
    Frame Length: 1000 bytes
    Capture Length: 1000 bytes
    [Frame is marked: False]
    [Protocols in frame: eth:eapol:eap]
Ethernet II, Src: QuantaCo_c9:ba:3c (00:16:36:c9:ba:3c), Dst: FujianSt_d9:f1:04 (00:d0:f8:d9:f1:04)
    Destination: FujianSt_d9:f1:04 (00:d0:f8:d9:f1:04)
        Address: FujianSt_d9:f1:04 (00:d0:f8:d9:f1:04)
        .... ...0 .... .... .... .... = IG bit: Individual address (unicast)
        .... ..0. .... .... .... .... = LG bit: Globally unique address (factory default)
    Source: QuantaCo_c9:ba:3c (00:16:36:c9:ba:3c)
        Address: QuantaCo_c9:ba:3c (00:16:36:c9:ba:3c)
        .... ...0 .... .... .... .... = IG bit: Individual address (unicast)
        .... ..0. .... .... .... .... = LG bit: Globally unique address (factory default)
    Type: 802.1X Authentication (0x888e)
    Trailer: FFFF3777FF23FDFDCF000000FFFFFFFFFFFFFFFFFFA36000...
    Frame check sequence: 0x00000000 [incorrect, should be 0xa17194f4]
802.1X Authentication
    Version: 1
    Type: EAP Packet (0)
    Length: 9
    Extensible Authentication Protocol
        Code: Response (2)
        Id: 81
        Length: 9
        Type: Identity [RFC3748] (1)
        Identity (4 bytes): CSiP

0000  00 d0 f8 d9 f1 04 00 16 36 c9 ba 3c 88 8e 01 00   ........6..<....
0010  00 09 02 51 00 09 01 43 53 69 50 ff ff 37 77 ff   ...Q...CSiP..7w.
0020  23 fd fd cf 00 00 00 ff ff ff ff ff ff ff ff ff   #...............
0030  a3 60 00 00 13 11 38 30 32 31 78 2e 65 78 65 00   .`....8021x.exe.
0040  00 00 00 00 00 00 00 00 00 00 00 00 00 00 00 00   ................
0050  00 00 00 00 00 00 02 1f 00 00 00 00 00 13 11 00   ................
0060  28 1a 28 00 00 13 11 17 22 92 68 64 66 92 94 62   (.(.....".hdf..b
0070  66 91 93 95 62 93 93 91 94 64 61 64 64 65 66 68   f...b....daddefh
0080  94 98 a7 61 67 65 67 9c 6b 00 00 00 00 00 00 00   ...ageg.k.......
0090  00 00 00 00 00 00 00 00 00 00 00 00 00 00 00 00   ................
00a0  00 00 00 00 00 00 00 00 00 00 00 00 00 00 00 00   ................
00b0  00 00 00 00 00 00 00 00 00 00 00 00 00 00 00 00   ................
00c0  00 00 00 00 00 00 00 00 00 00 00 00 00 00 00 00   ................
00d0  00 00 00 00 00 00 00 00 00 00 00 00 00 00 00 00   ................
00e0  00 00 00 00 00 00 00 00 00 00 00 00 00 00 00 00   ................
00f0  00 00 00 00 00 00 00 00 00 00 00 00 00 00 00 00   ................
0100  00 00 00 00 00 00 00 00 00 00 00 00 00 00 00 00   ................
0110  00 00 00 00 00 00 00 00 00 00 00 00 00 00 00 00   ................
0120  00 00 00 00 00 00 00 00 00 00 00 00 00 00 00 00   ................
0130  00 00 00 00 00 00 00 00 00 00 00 00 00 00 00 00   ................
0140  00 00 00 00 00 00 00 00 00 00 00 00 00 00 00 00   ................
0150  00 00 00 00 00 00 00 00 00 00 00 00 00 00 00 00   ................
0160  00 00 00 00 00 00 00 00 00 00 00 00 00 00 00 00   ................
0170  00 00 00 00 00 00 00 00 00 00 00 00 00 00 00 00   ................
0180  00 00 00 00 00 00 00 00 00 00 00 00 00 00 00 00   ................
0190  00 00 00 00 00 00 00 00 00 00 00 00 00 00 00 00   ................
01a0  00 00 00 00 00 00 00 00 00 00 00 00 00 00 00 00   ................
01b0  00 00 00 00 00 00 00 00 00 00 00 00 00 00 00 00   ................
01c0  00 00 00 00 00 00 00 00 00 00 00 00 00 00 00 00   ................
01d0  00 00 00 00 00 00 00 00 00 00 00 00 00 00 00 00   ................
01e0  00 00 00 00 00 00 00 00 00 00 00 00 00 00 00 00   ................
01f0  00 00 00 00 00 00 00 00 00 00 00 00 00 00 00 00   ................
0200  00 00 00 00 00 00 00 00 00 00 00 00 00 00 00 00   ................
0210  00 00 00 00 00 00 00 00 00 00 00 00 00 00 00 00   ................
0220  00 00 00 00 00 00 00 00 00 00 00 00 00 00 00 00   ................
0230  00 00 00 00 00 00 00 00 00 00 00 00 00 00 00 00   ................
0240  00 00 00 00 00 00 00 00 00 00 00 00 00 00 00 00   ................
0250  00 00 00 00 00 00 00 00 00 00 00 00 00 00 00 00   ................
0260  00 00 00 00 00 00 00 00 00 00 00 00 00 00 00 00   ................
0270  00 00 00 00 00 00 00 00 00 00 00 00 00 00 00 00   ................
0280  00 00 00 00 00 00 00 00 00 00 00 00 00 00 00 00   ................
0290  00 00 00 00 00 00 00 00 00 00 00 00 00 00 00 00   ................
02a0  00 00 00 00 00 00 00 00 00 00 00 00 00 00 00 00   ................
02b0  00 00 00 00 00 00 00 00 00 00 00 00 00 00 00 00   ................
02c0  00 00 00 00 00 00 00 00 00 00 00 00 00 00 00 00   ................
02d0  00 00 00 00 00 00 00 00 00 00 00 00 00 00 00 00   ................
02e0  00 00 00 00 00 00 00 00 00 00 00 00 00 00 00 00   ................
02f0  00 00 00 00 00 00 00 00 00 00 00 00 00 00 00 00   ................
0300  00 00 00 00 00 00 00 00 00 00 00 00 00 00 00 00   ................
0310  00 00 00 00 00 00 00 00 00 00 00 00 00 00 00 00   ................
0320  00 00 00 00 00 00 00 00 00 00 00 00 00 00 00 00   ................
0330  00 00 00 00 00 00 00 00 00 00 00 00 00 00 00 00   ................
0340  00 00 00 00 00 00 00 00 00 00 00 00 00 00 00 00   ................
0350  00 00 00 00 00 00 00 00 00 00 00 00 00 00 00 00   ................
0360  00 00 00 00 00 00 00 00 00 00 00 00 00 00 00 00   ................
0370  00 00 00 00 00 00 00 00 00 00 00 00 00 00 00 00   ................
0380  00 00 00 00 00 00 00 00 00 00 00 00 00 00 00 00   ................
0390  00 00 00 00 00 00 00 00 00 00 00 00 00 00 00 00   ................
03a0  00 00 00 00 00 00 00 00 00 00 00 00 00 00 00 00   ................
03b0  00 00 00 00 00 00 00 00 00 00 00 00 00 00 00 00   ................
03c0  00 00 00 00 00 00 00 00 00 00 00 00 00 00 00 00   ................
03d0  00 00 00 00 00 00 00 00 00 00 00 00 00 00 00 00   ................
03e0  00 00 00 00 00 00 00 00                           ........

No.     Time        Source                Destination           Protocol Info
     12 2.089813    FujianSt_d9:f1:04     QuantaCo_c9:ba:3c     EAP      Request, MD5-Challenge [RFC3748]

Frame 12 (64 bytes on wire, 64 bytes captured)
    Arrival Time: Apr 21, 2009 11:54:20.410101000
    [Time delta from previous captured frame: 0.005192000 seconds]
    [Time delta from previous displayed frame: 0.005192000 seconds]
    [Time since reference or first frame: 2.089813000 seconds]
    Frame Number: 12
    Frame Length: 64 bytes
    Capture Length: 64 bytes
    [Frame is marked: False]
    [Protocols in frame: eth:eapol:eap]
Ethernet II, Src: FujianSt_d9:f1:04 (00:d0:f8:d9:f1:04), Dst: QuantaCo_c9:ba:3c (00:16:36:c9:ba:3c)
    Destination: QuantaCo_c9:ba:3c (00:16:36:c9:ba:3c)
        Address: QuantaCo_c9:ba:3c (00:16:36:c9:ba:3c)
        .... ...0 .... .... .... .... = IG bit: Individual address (unicast)
        .... ..0. .... .... .... .... = LG bit: Globally unique address (factory default)
    Source: FujianSt_d9:f1:04 (00:d0:f8:d9:f1:04)
        Address: FujianSt_d9:f1:04 (00:d0:f8:d9:f1:04)
        .... ...0 .... .... .... .... = IG bit: Individual address (unicast)
        .... ..0. .... .... .... .... = LG bit: Globally unique address (factory default)
    Type: 802.1X Authentication (0x888e)
    Trailer: 0000000000000000000000000000000000000000
    Frame check sequence: 0x00000000 [incorrect, should be 0xcc18fa38]
802.1X Authentication
    Version: 1
    Type: EAP Packet (0)
    Length: 22
    Extensible Authentication Protocol
        Code: Request (1)
        Id: 83
        Length: 22
        Type: MD5-Challenge [RFC3748] (4)
        Value-Size: 16
        Value: 18553BB296111BFD4EC52E562E8A9766

0000  00 16 36 c9 ba 3c 00 d0 f8 d9 f1 04 88 8e 01 00   ..6..<..........
0010  00 16 01 53 00 16 04 10 18 55 3b b2 96 11 1b fd   ...S.....U;.....
0020  4e c5 2e 56 2e 8a 97 66 00 00 00 00 00 00 00 00   N..V...f........
0030  00 00 00 00 00 00 00 00 00 00 00 00 00 00 00 00   ................

No.     Time        Source                Destination           Protocol Info
     13 2.092411    QuantaCo_c9:ba:3c     FujianSt_d9:f1:04     EAP      Response, MD5-Challenge [RFC3748]

Frame 13 (1000 bytes on wire, 1000 bytes captured)
    Arrival Time: Apr 21, 2009 11:54:20.412699000
    [Time delta from previous captured frame: 0.002598000 seconds]
    [Time delta from previous displayed frame: 0.002598000 seconds]
    [Time since reference or first frame: 2.092411000 seconds]
    Frame Number: 13
    Frame Length: 1000 bytes
    Capture Length: 1000 bytes
    [Frame is marked: False]
    [Protocols in frame: eth:eapol:eap]
Ethernet II, Src: QuantaCo_c9:ba:3c (00:16:36:c9:ba:3c), Dst: FujianSt_d9:f1:04 (00:d0:f8:d9:f1:04)
    Destination: FujianSt_d9:f1:04 (00:d0:f8:d9:f1:04)
        Address: FujianSt_d9:f1:04 (00:d0:f8:d9:f1:04)
        .... ...0 .... .... .... .... = IG bit: Individual address (unicast)
        .... ..0. .... .... .... .... = LG bit: Globally unique address (factory default)
    Source: QuantaCo_c9:ba:3c (00:16:36:c9:ba:3c)
        Address: QuantaCo_c9:ba:3c (00:16:36:c9:ba:3c)
        .... ...0 .... .... .... .... = IG bit: Individual address (unicast)
        .... ..0. .... .... .... .... = LG bit: Globally unique address (factory default)
    Type: 802.1X Authentication (0x888e)
    Trailer: FFFF3777FF23FDFDCF000000FFFFFFFFFFFFFFFFFFA36000...
    Frame check sequence: 0x00000000 [incorrect, should be 0xc6b09132]
802.1X Authentication
    Version: 1
    Type: EAP Packet (0)
    Length: 26
    Extensible Authentication Protocol
        Code: Response (2)
        Id: 83
        Length: 26
        Type: MD5-Challenge [RFC3748] (4)
        Value-Size: 16
        Value: E20773041938B85F9EEF481E0707AD23
        Extra data (4 bytes): 43536950

0000  00 d0 f8 d9 f1 04 00 16 36 c9 ba 3c 88 8e 01 00   ........6..<....
0010  00 1a 02 53 00 1a 04 10 e2 07 73 04 19 38 b8 5f   ...S......s..8._
0020  9e ef 48 1e 07 07 ad 23 43 53 69 50 ff ff 37 77   ..H....#CSiP..7w
0030  ff 23 fd fd cf 00 00 00 ff ff ff ff ff ff ff ff   .#..............
0040  ff a3 60 00 00 13 11 38 30 32 31 78 2e 65 78 65   ..`....8021x.exe
0050  00 00 00 00 00 00 00 00 00 00 00 00 00 00 00 00   ................
0060  00 00 00 00 00 00 00 02 1f 00 00 00 00 00 13 11   ................
0070  00 28 1a 28 00 00 13 11 17 22 92 68 64 66 92 94   .(.(.....".hdf..
0080  62 66 91 93 95 62 93 93 91 94 64 61 64 64 65 66   bf...b....daddef
0090  68 94 98 a7 61 67 65 67 9c 6b 00 00 00 00 00 00   h...ageg.k......
00a0  00 00 00 00 00 00 00 00 00 00 00 00 00 00 00 00   ................
00b0  00 00 00 00 00 00 00 00 00 00 00 00 00 00 00 00   ................
00c0  00 00 00 00 00 00 00 00 00 00 00 00 00 00 00 00   ................
00d0  00 00 00 00 00 00 00 00 00 00 00 00 00 00 00 00   ................
00e0  00 00 00 00 00 00 00 00 00 00 00 00 00 00 00 00   ................
00f0  00 00 00 00 00 00 00 00 00 00 00 00 00 00 00 00   ................
0100  00 00 00 00 00 00 00 00 00 00 00 00 00 00 00 00   ................
0110  00 00 00 00 00 00 00 00 00 00 00 00 00 00 00 00   ................
0120  00 00 00 00 00 00 00 00 00 00 00 00 00 00 00 00   ................
0130  00 00 00 00 00 00 00 00 00 00 00 00 00 00 00 00   ................
0140  00 00 00 00 00 00 00 00 00 00 00 00 00 00 00 00   ................
0150  00 00 00 00 00 00 00 00 00 00 00 00 00 00 00 00   ................
0160  00 00 00 00 00 00 00 00 00 00 00 00 00 00 00 00   ................
0170  00 00 00 00 00 00 00 00 00 00 00 00 00 00 00 00   ................
0180  00 00 00 00 00 00 00 00 00 00 00 00 00 00 00 00   ................
0190  00 00 00 00 00 00 00 00 00 00 00 00 00 00 00 00   ................
01a0  00 00 00 00 00 00 00 00 00 00 00 00 00 00 00 00   ................
01b0  00 00 00 00 00 00 00 00 00 00 00 00 00 00 00 00   ................
01c0  00 00 00 00 00 00 00 00 00 00 00 00 00 00 00 00   ................
01d0  00 00 00 00 00 00 00 00 00 00 00 00 00 00 00 00   ................
01e0  00 00 00 00 00 00 00 00 00 00 00 00 00 00 00 00   ................
01f0  00 00 00 00 00 00 00 00 00 00 00 00 00 00 00 00   ................
0200  00 00 00 00 00 00 00 00 00 00 00 00 00 00 00 00   ................
0210  00 00 00 00 00 00 00 00 00 00 00 00 00 00 00 00   ................
0220  00 00 00 00 00 00 00 00 00 00 00 00 00 00 00 00   ................
0230  00 00 00 00 00 00 00 00 00 00 00 00 00 00 00 00   ................
0240  00 00 00 00 00 00 00 00 00 00 00 00 00 00 00 00   ................
0250  00 00 00 00 00 00 00 00 00 00 00 00 00 00 00 00   ................
0260  00 00 00 00 00 00 00 00 00 00 00 00 00 00 00 00   ................
0270  00 00 00 00 00 00 00 00 00 00 00 00 00 00 00 00   ................
0280  00 00 00 00 00 00 00 00 00 00 00 00 00 00 00 00   ................
0290  00 00 00 00 00 00 00 00 00 00 00 00 00 00 00 00   ................
02a0  00 00 00 00 00 00 00 00 00 00 00 00 00 00 00 00   ................
02b0  00 00 00 00 00 00 00 00 00 00 00 00 00 00 00 00   ................
02c0  00 00 00 00 00 00 00 00 00 00 00 00 00 00 00 00   ................
02d0  00 00 00 00 00 00 00 00 00 00 00 00 00 00 00 00   ................
02e0  00 00 00 00 00 00 00 00 00 00 00 00 00 00 00 00   ................
02f0  00 00 00 00 00 00 00 00 00 00 00 00 00 00 00 00   ................
0300  00 00 00 00 00 00 00 00 00 00 00 00 00 00 00 00   ................
0310  00 00 00 00 00 00 00 00 00 00 00 00 00 00 00 00   ................
0320  00 00 00 00 00 00 00 00 00 00 00 00 00 00 00 00   ................
0330  00 00 00 00 00 00 00 00 00 00 00 00 00 00 00 00   ................
0340  00 00 00 00 00 00 00 00 00 00 00 00 00 00 00 00   ................
0350  00 00 00 00 00 00 00 00 00 00 00 00 00 00 00 00   ................
0360  00 00 00 00 00 00 00 00 00 00 00 00 00 00 00 00   ................
0370  00 00 00 00 00 00 00 00 00 00 00 00 00 00 00 00   ................
0380  00 00 00 00 00 00 00 00 00 00 00 00 00 00 00 00   ................
0390  00 00 00 00 00 00 00 00 00 00 00 00 00 00 00 00   ................
03a0  00 00 00 00 00 00 00 00 00 00 00 00 00 00 00 00   ................
03b0  00 00 00 00 00 00 00 00 00 00 00 00 00 00 00 00   ................
03c0  00 00 00 00 00 00 00 00 00 00 00 00 00 00 00 00   ................
03d0  00 00 00 00 00 00 00 00 00 00 00 00 00 00 00 00   ................
03e0  00 00 00 00 00 00 00 00                           ........

No.     Time        Source                Destination           Protocol Info
     14 2.117409    FujianSt_d9:f1:04     QuantaCo_c9:ba:3c     EAP      Success

Frame 14 (267 bytes on wire, 267 bytes captured)
    Arrival Time: Apr 21, 2009 11:54:20.437697000
    [Time delta from previous captured frame: 0.024998000 seconds]
    [Time delta from previous displayed frame: 0.024998000 seconds]
    [Time since reference or first frame: 2.117409000 seconds]
    Frame Number: 14
    Frame Length: 267 bytes
    Capture Length: 267 bytes
    [Frame is marked: False]
    [Protocols in frame: eth:eapol:eap]
Ethernet II, Src: FujianSt_d9:f1:04 (00:d0:f8:d9:f1:04), Dst: QuantaCo_c9:ba:3c (00:16:36:c9:ba:3c)
    Destination: QuantaCo_c9:ba:3c (00:16:36:c9:ba:3c)
        Address: QuantaCo_c9:ba:3c (00:16:36:c9:ba:3c)
        .... ...0 .... .... .... .... = IG bit: Individual address (unicast)
        .... ..0. .... .... .... .... = LG bit: Globally unique address (factory default)
    Source: FujianSt_d9:f1:04 (00:d0:f8:d9:f1:04)
        Address: FujianSt_d9:f1:04 (00:d0:f8:d9:f1:04)
        .... ...0 .... .... .... .... = IG bit: Individual address (unicast)
        .... ..0. .... .... .... .... = LG bit: Globally unique address (factory default)
    Type: 802.1X Authentication (0x888e)
802.1X Authentication
    Version: 1
    Type: EAP Packet (0)
    Length: 249
    Extensible Authentication Protocol
        Code: Success (3)
        Id: 83
        Length: 4

0000  00 16 36 c9 ba 3c 00 d0 f8 d9 f1 04 88 8e 01 00   ..6..<..........
0010  00 f9 03 53 00 04 00 00 13 11 00 65 0d 0a d3 c9   ...S.......e....
0020  d3 da d1 a7 d0 a3 77 73 75 73 b7 fe ce f1 c6 f7   ......wsus......
0030  d3 f2 c3 fb b8 fc d0 c2 a3 ac c7 eb d3 c3 bb a7   ................
0040  b5 c7 c2 bd 77 73 75 73 2e 62 69 73 74 75 2e 65   ....wsus.bistu.e
0050  64 75 2e 63 6e d6 d8 d0 c2 cf c2 d4 d8 d4 cb d0   du.cn...........
0060  d0 cf e0 d3 a6 b5 c4 d7 a2 b2 e1 b1 ed ce c4 bc   ................
0070  fe a3 a8 d6 d8 c6 f0 ba f3 c9 fa d0 a7 a3 a9 21   ...............!
0080  0a 00 00 13 11 00 49 00 00 00 00 00 00 00 00 00   ......I.........
0090  00 00 00 00 00 00 00 00 00 00 00 00 00 00 00 00   ................
00a0  00 00 00 00 00 00 00 00 00 00 00 00 00 00 00 00   ................
00b0  00 00 00 00 00 00 00 00 00 00 00 00 00 00 00 00   ................
00c0  00 00 00 00 00 00 00 00 00 00 00 00 00 00 00 00   ................
00d0  00 00 00 00 00 00 00 00 00 00 00 00 00 00 00 00   ................
00e0  00 00 00 00 00 00 00 00 00 00 00 00 00 00 00 00   ................
00f0  00 00 13 11 01 01 00 00 13 11 01 01 ff ff 37 77   ..............7w
0100  af 7f ff ff eb cd ff ff ff d7 ff                  ...........

No.     Time        Source                Destination           Protocol Info
     15 2.117548    QuantaCo_c9:ba:3c     FujianSt_d9:f1:04     EAPOL    Unknown type (0xBF)

Frame 15 (45 bytes on wire, 45 bytes captured)
    Arrival Time: Apr 21, 2009 11:54:20.437836000
    [Time delta from previous captured frame: 0.000139000 seconds]
    [Time delta from previous displayed frame: 0.000139000 seconds]
    [Time since reference or first frame: 2.117548000 seconds]
    Frame Number: 15
    Frame Length: 45 bytes
    Capture Length: 45 bytes
    [Frame is marked: False]
    [Protocols in frame: eth:eapol:data]
Ethernet II, Src: QuantaCo_c9:ba:3c (00:16:36:c9:ba:3c), Dst: FujianSt_d9:f1:04 (00:d0:f8:d9:f1:04)
    Destination: FujianSt_d9:f1:04 (00:d0:f8:d9:f1:04)
        Address: FujianSt_d9:f1:04 (00:d0:f8:d9:f1:04)
        .... ...0 .... .... .... .... = IG bit: Individual address (unicast)
        .... ..0. .... .... .... .... = LG bit: Globally unique address (factory default)
    Source: QuantaCo_c9:ba:3c (00:16:36:c9:ba:3c)
        Address: QuantaCo_c9:ba:3c (00:16:36:c9:ba:3c)
        .... ...0 .... .... .... .... = IG bit: Individual address (unicast)
        .... ..0. .... .... .... .... = LG bit: Globally unique address (factory default)
    Type: 802.1X Authentication (0x888e)
802.1X Authentication
    Version: 1
    Type: Unknown (191)
    Length: 30
    Data (27 bytes)
        Data: FFFF37777F9FF7FFEB11FFFF37777F9FF7FFFF2BFFFF3777...

0000  00 d0 f8 d9 f1 04 00 16 36 c9 ba 3c 88 8e 01 bf   ........6..<....
0010  00 1e ff ff 37 77 7f 9f f7 ff eb 11 ff ff 37 77   ....7w........7w
0020  7f 9f f7 ff ff 2b ff ff 37 77 7f 3f ff            .....+..7w.?.
